:020000040800F2
:10000000E80400209D010008771F00086D1E00080D
:10001000751F00087D060008492700080000000041
:100020000000000000000000000000004D22000859
:100030007F06000800000000991F00084F220008FA
:10004000B7010008B7010008B7010008B7010008B0
:10005000B7010008B7010008B7010008B7010008A0
:10006000B7010008B7010008B7010008B701000890
:10007000B7010008B7010008B7010008B701000880
:10008000B7010008B7010008B7010008B701000870
:10009000B7010008B7010008B7010008B701000860
:1000A000B7010008B7010008B7010008B701000850
:1000B000B7010008B7010008B7010008B701000840
:1000C000B7010008B7010008B7010008B701000830
:1000D000B7010008B7010008B7010008B701000820
:1000E000B7010008B7010008B7010008B701000810
:1000F000B7010008B7010008B7010008B701000800
:10010000B7010008B7010008B7010008B7010008EF
:10011000B7010008B7010008B7010008B7010008DF
:10012000B7010008B7010008B7010008B7010008CF
:10013000B7010008B7010008B7010008B7010008BF
:10014000B7010008B7010008B7010008B7010008AF
:10015000B7010008B7010008B7010008B70100089F
:10016000B7010008B7010008B7010008B70100088F
:10017000B7010008B7010008B7010008000000003F
:10018000B7010008B7010008DFF80CD000F030FA22
:100190000048004769270008E80400200648804717
:1001A00006480047FEE7FEE7FEE7FEE7FEE7FEE75C
:1001B000FEE7FEE7FEE7FEE7DD2200088901000812
:1001C0002DE9F05F0546002092469B46884606468C
:1001D000814640241BE0284641464746224600F01F
:1001E00088F953465A46C01A914110D31146184611
:1001F000224600F06FF92D1A67EB01084F462246A0
:100200000120002100F066F917EB00094E41201E85
:10021000A4F10104DFDC484631462A46434600F09B
:1002200000B830BCBDE8C09FD2B201E000F8012B9D
:10023000491EFBD270470022F6E710B513460A4666
:1002400004461946FFF7F0FF204610BD2DE9FE4F8A
:10025000804681EA0300C00F0C46009021F0004167
:1002600023F00045B8EB0200A94105D240462146E3
:1002700090461C460B46024623F00040104347D0F0
:10028000270DC7F30A00C3F30A510290401A0190E8
:1002900040286BDAC3F3130040F4801B00989246A9
:1002A00020B10023D2EB030A63EB0B0B01985946F4
:1002B000C0F14002504600F00DF906460D4650468A
:1002C0005946019A00F025F910EB0800614100241D
:1002D00087EA115284EAE7731A4340D0009A62B366
:1002E000019A012A4FEA075215DC001B61EB02015B
:1002F0004FF0004202EA0752CDE90042001C41F5EE
:10030000801132462B4600F025F903B000F045B8C5
:1003100040462146F9E7001B61EB0201001C41F554
:10032000801300185B412018A2F5001747EB03016A
:1003300040EAD570B6196D4111E06D084FEA3606F6
:1003400045EAC0754FEA0752001B61EB0201001C31
:1003500041F5801149084FEA3000001951413246F9
:100360002B4603B000F01CB800F0E5B8009801225D
:1003700040000023D0EB020263EBE07300982146BB
:100380004FEAE074B8EB000061EB0401E9E783F0A9
:1003900000435BE781F0004158E730BCBDE8C08F07
:1003A00030BCBDE8C04FFFF7DFBF2DE9F04D81EA5B
:1003B000030404F0004B21F0004514464FF0000AFE
:1003C00023F0004150EA050220D054EA01021DD07A
:1003D000C5F30A570246C5F31303C1F31300C1F373
:1003E0000A5640F4801543F48013A7EB0608101B4F
:1003F000D64608F2FD3873EB050002D308F1010878
:1004000001E092185B41B8F1000F03DA00200146C9
:10041000BDE8F08D00204FF48011064684460EE0C2
:10042000171B73EB050705D3121B63EB050306438C
:100430004CEA010C49084FEA300092185B4150EA3F
:100440000107EDD152EA030012D082EA040083EAE8
:100450000501084305D0101BAB4106D20122002341
:1004600006E000224FF0004302E06FF0010253105B
:100470001AEB06004CEB085110EB0A0041EB0B01A4
:10048000BDE8F04D00F057B80EB540F2334102918F
:100490000021CDE900110A460B4600F05BF803B0DD
:1004A00000BDC1F30A5210B5C1F3130140F2FF338E
:1004B00041F480119A4201DA002010BD40F233432A
:1004C0009A42A2F2334203DC524200F012F810BD0D
:1004D000904010BD202A04DB203A00FA02F10020EF
:1004E00070479140C2F1200320FA03F31943904072
:1004F0007047202A04DB203A21FA02F000217047DD
:1005000021FA02F3D040C2F120029140084319467B
:100510007047202A06DBCB17203A41FA02F043EA63
:10052000E07306E041FA02F3D040C2F120029140AC
:1005300008431946704710B5141E73F1000408DA19
:10054000401C41F1000192185B411A4301D120F097
:10055000010010BD2DE9F04D92469B4611B1B1FA54
:1005600081F202E0B0FA80F220329046FFF7B2FF4B
:1005700004460F4640EA0A0041EA0B0153465A4638
:10058000084313D0114653EA010019D0C8F14002C4
:100590005046FFF7AEFF05460E46504659464246C6
:1005A000FFF798FF084305D0012004E020463946B4
:1005B000BDE8F08D0020054346EAE0762C43374342
:1005C0000A986305E40AA0EB08000022FD0A44EA49
:1005D00047540A3002D500200146E9E70105101909
:1005E0006941DDE9084500196941BDE8F04DA2E720
:1005F000064C074D06E0E06840F0010394E8070070
:1006000098471034AC42F6D3FFF7C2FDD828000853
:10061000F828000870B504460068816811F0010FE1
:1006200028D18168144A114215D18168D5432940E7
:10063000491C816000F080FD064616E0816811F0DB
:10064000010F03D181682940491C816000F074FDCD
:10065000801B022809D9606D40F010006065A06D14
:1006600040F00100A065012070BD20680168C94309
:10067000C907E3D1002070BD3F000080FEE770474E
:100680002DE9F047044690F850009AB00D464FF01F
:100690000008012813D0012084F85000304E206853
:1006A0004FF00009B0420ED12E4F0097384601F0AE
:1006B000ECFB8246206801F0E8FB60B10EE002200E
:1006C0001AB0BDE8F087616D41F02001616584F8E2
:1006D00050900120F4E7BAF1000F09D0606D40F0AE
:1006E000200060654FF0010884F850904046E7E72D
:1006F0001D4829681D4A0029816840F61F7321F4AE
:1007000060411BD094F830C041EA4C31D5F804C0A8
:1007100041EA0C018160B168BE6801F0010106F098
:1007200001069268314302F001021143DCD1AA684C
:100730002968114382689A4311430EE08160B168D1
:10074000BD6801F0010105F001059268294302F03E
:1007500001021143C8D1816899438160C4E7000058
:100760000000045000010450000304500002045033
:100770002DE9F84F00270446009790F85000DFF865
:10078000B8930D46B846012811D0012684F8506070
:10079000206801F076FB60B1606D40F0200060657C
:1007A0005FF0010784F85080384600F0DDB9022080
:1007B000FBE768680C23052812D8022807D0032815
:1007C00007D0042807D0052807D0062007E06B6073
:1007D00006E0122003E0182001E04FF4807068600A
:1007E000D5E9002103EA9113206801F01F011844A4
:1007F0004FF01F0C0CFA01FC036BC2F3846223EA76
:100800000C038A4013430363206801F03AFB8246DD
:10081000206801F032FB5AEA00001DD1AA6829685D
:10082000206801F03EFB20686969C268C2F3C1021A
:10083000520091402A69042A0FD000EB82002B68F5
:10084000DFF8F8C2026E03F0F84302EA0C020B4331
:100850001A4342F00041016672E0002101F007FBFB
:10086000400320684FF0000172D001F000FB90FAC5
:10087000A0F0B0FA80F1286842036ED090FAA0F0A0
:10088000B0FA80F0814204D100221146206801F0C4
:1008900017FB0121206801F0EAFA400320684FF0BD
:1008A00001015DD001F0E3FA90FAA0F0B0FA80F116
:1008B0002868420359D090FAA0F0B0FA80F0814243
:1008C00004D100220121206801F0FAFA02212068F7
:1008D00001F0CDFA400320684FF0020148D001F04A
:1008E000C6FA90FAA0F0B0FA80F12868420344D02A
:1008F00090FAA0F0B0FA80F0814204D100220221E7
:10090000206801F0DDFA0321206801F0B0FA40030D
:1009100020684FF0030133D001F0A9FA90FAA0F05B
:10092000B0FA80F1286842032FD090FAA0F0B0FA14
:1009300080F0814204D100220321206801F0C0FA36
:100940002068816811F0010F22D0ACE000E004E0E3
:1009500001F08DFAC0F384618DE7C0F3846091E704
:1009600001F085FAC0F38461A2E7C0F38460A6E7D2
:1009700001F07DFAC0F38461B7E7C0F38460BBE7A0
:1009800001F075FAC0F38461CCE7C0F38460D0E76E
:100990002A7B296850F8B03FC1F3120C23EA0C03FC
:1009A00002F0180C664A22FA0CF20A401343036064
:1009B000E968494577D1286841031CD090FAA0F135
:1009C000B1FA81F1491C01F01F0109294FEA4031B8
:1009D00032D8002912D000BF90FAA0F1B1FA81F10B
:1009E00001F1010101F01F0106FA01F609D100BF72
:1009F000C0F3846109E0C0F38461E3E7C0F384617C
:100A0000EEE790FAA0F1B1FA81F101F1010101F0F4
:100A10001F0146EA816102D1C0F3846003E090FACD
:100A2000A0F0B0FA80F000F1010000F01F0000EB30
:100A3000400041EA005132E000290ED090FAA0F1C6
:100A4000B1FA81F101F1010101F01F0106FA01F68D
:100A500006D100BFC0F3846106E0C0F38461F1E712
:100A600090FAA0F1B1FA81F101F1010101F01F0149
:100A700046EA816102D1C0F3846003E090FAA0F0FD
:100A8000B0FA80F000F1010000F01F002D4A00EBE9
:100A9000400002EB005041EA000141F00071AA68F9
:100AA000206801F0FEF928482A6802423FF47AAE35
:100AB00026488168264E274B274D01F0E071B2424F
:100AC0001CD10E021AD422689A4202D0AA427FF4A4
:100AD00069AE826841F4000122F0E0720A4382604C
:100AE0001E481F490068B0FBF1F000EB4000800099
:100AF00000E0401E00900028FBD153E6194EB242A0
:100B000009D1CE0107D422689A4201D0AA42F4D179
:100B100041F080710AE06FF00045EA42EDD14A02EF
:100B2000EBD422689A42E8D141F48001826822F035
:100B3000E0720A43826035E600007F4000F0FF0368
:100B4000FFFF0700000020FE0000088000030450A3
:100B5000000052C7000004500002045004000020AE
:100B6000400D0300000084CB18BCBDE8E08F006896
:100B7000006C7047F8B54FF0000504002E46009554
:100B800002D0606D10B107E00120F8BD204600F0F2
:100B9000D5F8A66584F8506020688168C1F340717B
:100BA00019B181685B4A1140816020688168C1F396
:100BB000007179B98168584A114041F080518160D3
:100BC000564857490068B0FBF1F000E0401E009025
:100BD0000028FBD120688168C1F3007141B9616DC3
:100BE00041F010016165A16D41F00101A165012590
:100BF00001F047F9616DC90600D430B1606D40F075
:100C00001000606501252846F8BD606D20F48070F5
:100C100040F0020060652068806810F0010F15D177
:100C200040488068404900F00100896801F00101F6
:100C300008433E49896801F00101084306D13C4957
:100C400060688A6822F47C1202438A60E168606B03
:100C5000627E0843A16841EA4231084394F82010BB
:100C600040EA0140012904D1A18C324A02EB414102
:100C70000843A16A29B101F47071E26A014342EAB2
:100C800001002268D1682C4B19400143D1602068D3
:100C900001F0F7F80646206801F0EFF8304315D16F
:100CA000207E94F830102268800340EA4101D06829
:100CB00044F2020398430843D06094F838000128B6
:100CC0000CD02068016921F001010161206901282F
:100CD0002068016B21F00F0111D013E0D4E90F015E
:100CE0000843D4E911121143084321680A6940F20C
:100CF000FC739A43104340F001000861E6E7E269A3
:100D0000521E11430163606D20F0020040F00100AB
:100D1000606578E7C0FFFF5FC0FFFF7F0400002031
:100D2000400D030000000450000104500002045074
:100D3000000304500000FEFF07C0F0FF08B5006884
:100D40000649884208D10648C16C41F40051C1648B
:100D5000C06C00F40050009008BD0000000004507A
:100D6000001002402DE9F041044639480F468168E1
:100D700001F01F05616908290FD085B1052D0ED03E
:100D8000092D0CD0806800F4604060B1606D40F0C7
:100D9000200060650120BDE8F081082604E020689D
:100DA000C068C007F1E7042600F0C6F9804608E0F5
:100DB000781C06D000F0C0F9A0EB0800B8420FD8AC
:100DC00077B1206800683042F2D0606D40F4007066
:100DD0006065206801F05DF8D0B1607E48B117E031
:100DE000606D40F004006065002084F8500003202E
:100DF000D1E72068006800070AD5606D20F4807094
:100E00006065606DC00403D4606D40F001006065F2
:100E1000104A20681049904201D10B4600E0034679
:100E2000834210D07DB1052D0DD0092D0BD09042FD
:100E300000D00146C968082E07D0490401D40C210E
:100E400001600020A7E7C168F5E70821F8E7000086
:100E50000003045000010450000004502DE9F0414B
:100E600004463748806800F01F05206801F009F843
:100E700018B102210846BDE8F08194F8500001281D
:100E80000CD0012084F850002046FFF7C3FB01007E
:100E90004FF0000304D084F85030EBE70220EAE77B
:100EA000606D40F60162904340F480706065254AB1
:100EB0002068254E904201D1374600E00746874220
:100EC00000D01DB9676D27F480176765676DFF0453
:100ED00004D5A76D27F00607A76500E0A3651C27CA
:100EE000076084F850302068904201D1334600E01A
:100EF0000346834215D0A5B1052D12D0092D10D07F
:100F0000636D43F480136365904200D13046C0683E
:100F10008001AFD5606D20F4005040F480506065D2
:100F2000A8E7C268920105D5626D22F4005242F42E
:100F3000805262658268054B1A40121D826099E7F3
:100F4000000304500001045000000450C0FFFF7F64
:100F500070B5044600F0F0F80546601C00D0641C33
:100F600000F0EAF8401BA042FAD370BD2DE9F84F1B
:100F7000DFF898B100234FF0010C4FF0030A4FF057
:100F80000F090BF1040EB9E00CFA03F4224070D003
:100F90004D68022D01D0122D0ED1DD0800EB850821
:100FA000D8F820505E07F70E09FA07F6B5430E6928
:100FB000BE402E43C8F8206007685E0091F80480A8
:100FC0000AFA06F508F00308AF4308FA06F848EAFB
:100FD0000708C0F800804F68012F05D0022F03D00A
:100FE000112F01D0122F13D1D0F80880CF6828EA32
:100FF0000508B74047EA08078760D0F804800F79F2
:1010000028EA0408C7F300179F4047EA080747602B
:10101000D1F804806FEA0807BF0706D1C76AA74363
:10102000C8F3C0049C403C43C462C468AC438D68B0
:10103000B5402543C5604C68E4005ED5344C256E50
:1010400045F001052566246E23F0030504F0010434
:101050000094304C2E19B4689D072F0F09FA07F53C
:10106000AC43B0F1904F05D02B4DA84204D10125DF
:101070001CE042E0002519E0284DA84201D10225DC
:1010800014E0274DA84201D103250FE0254DA842C9
:1010900001D104250AE0244DA84201D1052505E02F
:1010A000224DA84201D1062500E00725BD40254379
:1010B000B560DBF800405D464E689443F60300D50A
:1010C00014432C60DEF8004075464E689443B60326
:1010D00000D514432C600D4D08352C684E689443A0
:1010E000F60200D514432C60084D0C352C684E6870
:1010F0009443B60200D514432C605B1C0A6832FA94
:1011000003F57FF441AF00F013B800000004014084
:1011100000100240000001400004004800080048A0
:10112000000C004800100048001400480018004857
:1011300018BCBDE8E08F000001480068704700005F
:101140000000002002480168491C0160704700004F
:101150000000002010B50024032000F059F8002002
:1011600000F008F808B1012401E000F01BF8204667
:1011700010BD000070B5054609484FF47A7100248F
:101180000068B0FBF1F000F09DFD08B1012404E01F
:1011900000222946501E00F01BF8204670BD0000BA
:1011A00004000020094808B5016E41F00101016604
:1011B000016E01F001010091816D41F08051816566
:1011C000806D00F08050009008BD000000100240CB
:1011D000F0B40E4B1B680C46C3F30223C3F10705A2
:1011E000042D00D90425191D072901D2002300E090
:1011F000DB1E012606FA05F1491E214099409E405A
:10120000761E16403143F0BC00F0B6BE0CED00E097
:10121000064900F0070208684FF6FF03184040EA4D
:101220000220034A10430860704700000CED00E004
:101230000000FA051649B0F5007F0868C0F34120A8
:1012400009D0022805D0086820F4C06040F480600E
:101250000860002070470128FBD0086820F4C060B7
:1012600040F4007008600B483222006850430A4A7C
:10127000B0FBF2F0401C00E0401E4A69520501D567
:101280000028F9D148694005E3D5032070470000E4
:10129000007000400400002040420F000248006837
:1012A00000F4C06070470000007000402DE9F84F66
:1012B000044600270088E54D3E46010504F1200B59
:1012C0001DD5606E78B1B0F5800F11D0B0F5000F6C
:1012D00004D0B0F5400F22D001270FE0E86840F4B9
:1012E0008030E8601BE00021201D00F057FE03E085
:1012F0000021584600F0E8FE070010D03E46208846
:10130000C00426D5A06EC0B1B0F1807F1AD0B0F174
:10131000007F0DD0B0F1407F19D0012718E0D5F83B
:101320008800616E20F440000843C5F88800E6E7B5
:10133000E86840F48030E86009E00021201D00F0FA
:101340002DFE03E00021584600F0BEFE0746F7B12F
:101350003E46206880033AD5A86D4FF00008C000D3
:1013600009D4A86D40F08050A865A86D4FF0010821
:1013700000F080500090DFF8D8A2DAF8001041F4B5
:101380008071CAF80010FFF7D7FE814610E0D5F84B
:101390008800A16E20F040700843C5F88800D8E7A7
:1013A000FFF7CAFEA0EB0900022801D9032705E0D8
:1013B000DAF80000C005F3D5002F7CD04FEA07060D
:1013C000B8F1000F03D0A86D20F08050A8652078F8
:1013D000C00707D0D5F88800A16B20F003000843B0
:1013E000C5F888002078800707D5D5F88800E16B1C
:1013F00020F00C000843C5F888002078400707D586
:10140000D5F88800216C20F030000843C5F888002A
:101410002078000707D5D5F88800616C20F0C0005F
:101420000843C5F888002078C00607D5D5F888009D
:10143000A16C20F440700843C5F88800207880062D
:1014400007D5D5F88800E16C20F440600843C5F862
:1014500088002088800507D5D5F88800E16D20F444
:1014600040200843C5F888002088400507D5D5F8F6
:101470008800216E20F440100843C5F888002078C9
:10148000400607D5D5F88800216D20F44050084368
:10149000C5F888002078000607D5D5F88800616D6A
:1014A00020F440400843C5F888002088C00509D5CD
:1014B000D5F8880000E01CE0A16D20F4403008431E
:1014C000C5F8880020884FF0006780044FF08068DE
:1014D0004FD5D5F88800E16E20F040600843C5F88C
:1014E0008800E06EB8423CD1E86840F48010E860C3
:1014F0003FE0D5F8900010F4407015D0D4F8841077
:10150000814211D0D5F89000D5F8901020F44070A9
:1015100041F48031C5F89010D5F8901021F4803155
:10152000C5F89010C5F89000C00710D0FFF704FE72
:10153000074641F2883906E0FFF7FEFDC11B494529
:1015400001D903263CE7D5F890008007F4D5D5F8FB
:101550009000D4F8841020F440700843C5F890003F
:101560002EE7404505D10121201D00F017FD00B1F7
:1015700006462068000317D5D5F88800216F20F0B3
:1015800040600843C5F88800206FB84204D1E8687D
:1015900040F48010E86007E0404505D10121201D9E
:1015A00000F0FCFC00B106462068400317D5D5F8D2
:1015B0008800616F20F040600843C5F88800606FC4
:1015C000B84204D1E86840F48010E86007E0404584
:1015D00005D10121201D00F0E1FC00B10646208864
:1015E00040041AD5D5F88800A16F20F04050084378
:1015F000C5F88800A06FB0F1805F03D0B0F1005F44
:1016000005D00AE00221201D00F0C8FC03E0022101
:10161000584600F059FD00B106462088000407D561
:10162000D5F88800E16F20F080400843C5F88800B5
:101630002068C00307D555F8880FD4F8801020F033
:10164000004008432860304600F004B80010024013
:101650000070004018BCBDE8E08F00002DE9F047A5
:101660000F46050058D03F4E306800F00700B842E2
:1016700009D2306820F0070038433060306800F04D
:101680000700B84248D12878374CC0072CD068688A
:10169000032811D0022812D0216898B149050029E9
:1016A0003ADAA16821F003010143A160FFF744FD8C
:1016B000804641F2883910E021688901EFE721680E
:1016C0008903ECE78907EAE7FFF736FDA0EB08019D
:1016D000494502D90320BDE8F087A068696800F099
:1016E0000C00B0EB810FEFD12878800705D5A068FA
:1016F000A96820F0F0000843A060306800F00700FF
:10170000B8420BD9306820F00700384330603068A9
:1017100000F00700B84201D00120DCE7287840073C
:1017200005D5A068E96820F4E0600843A060287847
:10173000000706D5A068296920F4605040EAC1007E
:10174000A06000F03BF8A168084AC1F30311515CA6
:1017500001F01F01C84006490860BDE8F0470020BD
:10176000FFF708BD0020024000100240902800084A
:10177000040000200548064900688968054AC1F34D
:101780000221515C01F01F01C84070470400002095
:1017900000100240D0280008054806490068896802
:1017A000054AC1F3C221515C01F01F01C8407047D6
:1017B0000400002000100240D028000870B5254920
:1017C000002318468A68CC6812F00C0204F0030665
:1017D000214C4FEA640509D00C2A05D0042A26D0F2
:1017E000082A00D1284670BD012E10D10B681B07B6
:1017F00004D4D1F89430C3F3032302E00B68C3F39D
:101800000313164E56F823307AB10C2AEBD1C86870
:1018100000F00302C868C0F30210401C022A08D07E
:10182000032A09D0B3FBF0F008E0184670BD20464B
:1018300070BDB4FBF0F001E0B5FBF0F0CA68C96818
:10184000C2F306225043C1F34161491C4900B0FB79
:10185000F1F070BD001002400024F400A028000840
:101860002DE9F84305007CD0FD4CA06800F00C0683
:10187000E06800F003072878C00661D576B10C2E29
:1018800001D1012F0AD0A8690028206878D040F043
:1018900001002060FFF750FC804659E02068800777
:1018A00002D5A8690028DED0286A2168090703D577
:1018B000216801F0F00104E0D4F89410F02202EA6B
:1018C0001111884215D900F083FC002849D1206805
:1018D00040F0080020602068296A20F0F0000843EA
:1018E00020606068E96920F47F4040EA0120606080
:1018F00015E0206840F0080020602068296A20F088
:10190000F000084320606068E96920F47F4040EA05
:1019100001206060286A00F05BFC0028D6D1FFF748
:101920004DFFA168CF4AC1F30311515C01F01F01C3
:10193000C840CD4908600020FFF71CFC00287DD17D
:101940002FE000BFFFF7F8FBA0EB0800022876D8D5
:1019500020688007F6D5206840F0080020602068E5
:1019600001E0BBE00CE0296A20F0F00008432060B1
:101970006068E96920F47F4040EA0120606010E07F
:1019800020F001002060FFF7D7FB804606E000BF93
:10199000FFF7D2FBA0EB08000228D8D82068800708
:1019A000F6D42878C00740D0082E18D00C2E01D1CC
:1019B000032F14D06868B0F5803F17D0B0F5A02F82
:1019C000206817D020F480302060206820F4802028
:1019D00020606868E0B1FFF7AFFB804614E0206844
:1019E000800322D56868002878D01EE0206840F483
:1019F0008030EDE740F480202060F7E7FFF79CFBA4
:101A0000A0EB08006428A2D820688003F6D50CE07B
:101A1000FFF792FB804605E0FFF78EFBA0EB080086
:101A2000642894D820688003F6D4287880073BD5B2
:101A3000042E11D00C2E04D1022F01E036E1A1E0DA
:101A40000AD0E868002820681ED040F4807020602A
:101A5000FFF772FB07460CE0206840050CD5E868EC
:101A60000028C1D008E000BFFFF766FBC01B0228BA
:101A700093D820684005F7D56068297C20F0F8509D
:101A800040EA016060600FE020F480702060FFF7A2
:101A900053FB074605E000BFFFF74EFBC01B0228C3
:101AA00070D820684005F7D42878000729D56869E0
:101AB0000028D4F8940012D040F00100C4F894003B
:101AC000FFF73AFB074604E0FFF736FBC01B02288E
:101AD00058D8D4F894008007F6D512E0EDE020F055
:101AE0000100C4F89400FFF727FB074605E000BF9C
:101AF000FFF722FBC01B022844D8D4F894008007CB
:101B0000F6D42878400768D5A06D0027C00008D417
:101B1000A06D40F08050A065A06D012700F08050BE
:101B2000009052480168C90512D40168814641F409
:101B300080710160FFF700FB804605E0FFF7FCFACB
:101B4000A0EB080002281DD8D9F80000C005F5D583
:101B5000A868012817D00528D4F8900018D020F0E4
:101B60000100C4F89000D4F8900020F0040000BFF9
:101B7000C4F89000A86841F28839D0B1FFF7DCFAC8
:101B8000804611E06BE0D4F8900040F00100EFE7F0
:101B900040F00400C4F89000F5E700BFFFF7CCFA6E
:101BA000A0EB080149455AD8D4F890008007F5D534
:101BB0000EE0FFF7C1FA804606E000BFFFF7BCFA6F
:101BC000A0EB0801494570D8D4F890008007F5D4FF
:101BD0001FB1A06D20F08050A065A86AF0B30C2E54
:101BE0006BD00228206820F08070206004D020682C
:101BF00010F0205F47D04AE0FFF79EFA064604E067
:101C0000FFF79AFA801B02284FD820688001F7D48A
:101C1000286BE96A000110380843696BAA6B090256
:101C2000120941EA42410843A98F114A490802EBCF
:101C30004151084395F840104908120102EB4161F7
:101C40000843E060206840F080702060E06840F069
:101C50008070E060FFF770FA054610E02BE024E0AA
:101C6000001002409028000804000020007000408E
:101C70000000E0FFFFF760FA401B022815D820683B
:101C80008001F7D517E0E06820F00300E060E0682D
:101C90000B490840E060FFF74FFA054608E000BF37
:101CA000FFF74AFA401B022802D90320BDE8F88357
:101CB00020688001F4D40020F8E70120F6E7000056
:101CC000FFFFEEFE10B5401EB0F1807F01D3012072
:101CD00010BD4FF0E02460610F21601700F04CF957
:101CE0000020A06107202061002010BD10B5040075
:101CF00003D094F8710010B107E0012010BD00205E
:101D000084F87000204600F027F8242084F8710041
:101D10002068016821F001010160204600F092FB7B
:101D20000128EBD0606A10B1204600F0F9FA206873
:101D3000416821F4904141602068816821F02A01C6
:101D400081602068016841F0010101602046BDE822
:101D5000104000F049BB000010B586B004461421C5
:101D60006846FEF768FA1349206888421FD1124876
:101D7000816D41F400318165816D01F4003105917F
:101D8000C16C41F00101C164C06C694600F0010002
:101D900005900C200090022001900020029003206A
:101DA0000390072004904FF09040FFF7DFF806B053
:101DB00010BD000000440040001002402DE9F8432F
:101DC000044690F871001F4616460D4620284BD158
:101DD000C5B1BEB194F87000012845D0012084F847
:101DE00070004FF00008C4F87480212084F871005E
:101DF000FFF7A2F9A4F850608146A4F852604FF4AE
:101E0000805615E00120BDE8F8838021204600F0CF
:101E100069FCD8B9A068B04201D12069C0B115F8F9
:101E2000010B21680885B4F85200401EA4F8520046
:101E3000B4F852004B464FF0000200970028E4D15E
:101E40004FF04001204600F04DFC30B10320DAE7AE
:101E500035F8020BC0F30800E3E7202084F8710096
:101E600084F870800020CEE70220CCE7FEE700EB8C
:101E70008100006E00F0F84070478068C0F3C00039
:101E800070478068C0F3800070478068C0F38000AE
:101E90007047C06810F4406F01D0002070470120E7
:101EA0007047042310B503EAD1531844C1F3045119
:101EB00007248C4043698A40A3431343436110BD08
:101EC00000EB8100016E21F0004111430166704773
:101ED00030B589B000240694079418216846089408
:101EE000FEF7A9F9164815490425C0E900148460D5
:101EF000C460C0E90445047644760121C16180F8DC
:101F000020408462C46280F83040446380F83840E6
:101F1000FEF730FE06A90A480694FEF7B1FB094811
:101F200000900620CDE901047F200594CDE903054A
:101F300069460348FEF71CFC09B030BD00000450A0
:101F400008000020000052C70948084901604FF40A
:101F5000E1314160002181600C22C160C0E90412BE
:101F60008161C16101624162FFF7C0BE004400406F
:101F70006C000020FEE770470907090E002806DA0A
:101F800000F00F0000F1E02080F8141D704700F110
:101F9000E02080F800147047704700002DE9F04100
:101FA000444C05468846E0680026810728680DD025
:101FB000E16801F00301814216D1A8B1E0686968C7
:101FC000C0F30210401C88420ED120E0012804D04A
:101FD000022805D0032807D108E02168890701E01D
:101FE00021684905002907DB01265FE02168890394
:101FF00002D421684903F5E7E1686A686FF00F03CE
:1020000021F0730103EB021211430143E1602068E8
:1020100020F080602060FFF78FF8074605E000BFE2
:10202000FFF78AF8C01B022837D820680001F7D4D0
:10203000B8F1000F18D0B8F1010F1ED0287D4FF075
:102040007E41400801EB4060A96840EA0120216917
:10205000194A114008432061206840F080602060E8
:10206000FFF76AF807461AE0A868E968000209095C
:1020700040EA41402169114AEBE7288A10494008AB
:1020800001EB4050A96840EA012021690D4AE0E7D0
:10209000FFF752F8C01B022801D9032606E020688A
:1020A0000001F5D52069A969084320613046BDE8E3
:1020B000F081000000100240FF80FFF9FF80FDFF6B
:1020C0000000E0FFFF809FFF2DE9F0413D4C0646F8
:1020D0008846E0680025810730680DD0E16801F08E
:1020E0000301814216D1A8B1E0687168C0F3021003
:1020F000401C88420ED120E0012804D0022805D0DF
:10210000032807D108E02168890701E02168490513
:10211000002907DB012551E02168890302D42168E9
:102120004903F5E7E16872686FF00F0321F073016E
:1021300003EB021211430143E160206820F080505C
:102140002060FEF7F9FF074605E000BFFEF7F4FF49
:10215000C01B022829D820688000F7D4B8F1000FEE
:1021600015D0307C4FF07E41400801EB4060B168F3
:1021700040EA01206169144A114008436061206807
:1021800040F080502060FEF7D7FF07460FE0B068B0
:10219000F1680002090940EA414061690B4AEBE736
:1021A000FEF7CAFFC01B022801D9032506E02068FC
:1021B0008000F5D560697169084360612846BDE813
:1021C000F081000000100240FF80FFF9FF80FDFF5A
:1021D000F8B51C4D06460024A86DC00002D5FFF7D7
:1021E0005DF80DE0A86D40F08050A865A86D00F086
:1021F00080500090FFF752F8A96D21F08051A96539
:10220000B0F5007F04D0802E07D94FF003040AE018
:10221000802E08D9A02E01D804E001D1022402E0CA
:10222000702E00D101240848016821F007012143E4
:102230000160006800F00700A04201D00120F8BD55
:102240000020F8BD00100240002002407047FEF759
:1022500079BFF0B5B9B0442122A8FDF7ECFF1421F5
:1022600033A8FDF7E8FF88216846FDF7E4FF10205A
:10227000229001240025CDE9284502266020CDE9E1
:102280002C642A9028200727CDE92E40CDE930760E
:10229000329622A8FFF7E4FA0F2033900320CDE90D
:1022A00034053695042133A83795FFF7D7F944F262
:1022B00002000F950090C0061E901820CDE9024044
:1022C00001942006CDE90660CDE904766846FEF764
:1022D000EDFF6002FEF7AEFF39B0F0BD0D480168BA
:1022E00041F4700101600C48016841F00101016096
:1022F000002181600268094B1A4002608214C260AA
:10230000026822F48022026081610249C0038039A0
:102310000860704788ED00E000100240FFFFF6EA19
:1023200090F82410C90706D001684A68836A22F42D
:1023300000321A434A6090F82410890706D50168D4
:102340004A68C36A22F480321A434A6090F8241023
:10235000490706D501684A68036B22F480221A43B4
:102360004A6090F82410090706D501684A68436B53
:1023700022F400421A434A6090F82410C90606D598
:1023800001688A68836B22F480521A438A6090F84D
:102390002410890606D501688A68C36B22F40052AE
:1023A0001A438A6090F82410490611D501684A68DA
:1023B000036C22F480121A434A60016CB1F5801F4D
:1023C00006D101684A68436C22F4C0021A434A608D
:1023D00090F82410090606D501684A68806C22F43A
:1023E000002202434A607047F8B50026044646675B
:1023F000FEF7A2FE0546206800686FF07E470007E2
:1024000008D52B4600224FF400112046009700F01B
:1024100069F960B92068006840070AD52B46002298
:102420004FF480012046009700F05CF908B10320CA
:10243000F8BD202084F8710084F8720084F8706080
:102440000020F8BD2DE9F041044601688068236949
:10245000E669184363691025002733431843954AFA
:102460000B68954E334003430B6020684168E36876
:1024700021F44051194341602168A069914201D083
:10248000236A18438B6823F4306303438B608B4BC0
:1024900021688B4899420DD1D0F8880010F00300D4
:1024A00006D001285AD0022856D0032859D157E027
:1024B000012556E0834B99420BD1D0F8880010F0EB
:1024C0000C0047D0042849D0082845D00C2848D112
:1024D00046E07D4B99420BD1D0F8880010F03000D7
:1024E00038D010283AD0202836D0302839D137E0DB
:1024F000764B99420BD1D0F8880010F0C00029D05B
:1025000040282BD0802827D0C0282AD128E0704B23
:1025100099420ED1D0F8880010F440701AD0B0F56E
:10252000807F1BD0B0F5007F16D0B0F5407F18D16A
:1025300016E0914215D1D0F8880010F4406009D01F
:10254000B0F5806F0AD0B0F5006F05D0B0F5406FE0
:1025500007D105E0002504E0022502E0042500E0A3
:1025600008255C4B00264FF4004091423DD135B127
:10257000022D07D0042D07D0082D10D107E0FFF75A
:10258000F9F803E0184602E0FFF718F9A8B362680B
:1025900002EB4201814202D8B0EB023F01D9012790
:1025A00075E0DFF834815DB1022D0CD0042D13D01D
:1025B000082DF4D150082905401846F1000105E026
:1025C000FFF7D8F80AE050084449F5E70023FDF783
:1025D000F7FDA0F5407156E0FFF7F0F86268010ED4
:1025E0000302500818187141F0E7E1694FF6EF78DF
:1025F00081422FD1092DD2D200E048E0DFE805F07A
:1026000006092005230505052600C8E7FFF7B2F8EF
:1026100001E0FFF7C1F84100D4F8040001EB5001DC
:10262000B1FBF0F080B2A0F110014145B7D84FF6F0
:10263000F0710140C0F3420001432068C16026E010
:1026400027496068EAE7FFF7B9F8E4E74FF480311B
:102650006068E3E7092DA2D2DFE805F006091E0550
:102660002205050525009AE7FFF784F801E0FFF74A
:1026700093F80146606801EB500100BFB1FBF0F038
:1026800080B2A0F11001414589D82168C860266652
:1026900038466666BDE8F081606803EB5001EDE7FF
:1026A000FFF78CF8E5E7616800EB5100B0FBF1F053
:1026B000E6E7000000800040F369FFEF00380140CA
:1026C000001002400044004000480040004C004020
:1026D000005000400024F400FFFC0F00000024F430
:1026E0000048E8012DE9F041984617460E46044699
:1026F000069D1DE0681C1BD02DB1FEF71DFDA0EB53
:102700000800A84214D92068016821F4D071016042
:102710002068816821F001018160202084F8710027
:1027200084F87200002084F870000320BDE8F08176
:102730002068C06936EA000004D00020B842D9D031
:102740000020F3E70120F9E7FEE702E008C8121FC6
:1027500008C1002AFAD170477047002001E001C18A
:10276000121F002AFBD1704786B0FEF7F3FCFFF77B
:1027700070FD3A48C16C41F08001C164C16C01F048
:1027800080010591C16C41F00101C164C06C00F091
:1027900001000590FFF79CFBFFF7D6FB30A031A2AC
:1027A0000068039007CA8DE8070031A04FF4FA656E
:1027B00000686C1040F6B83604902E48FEF74EFBC9
:1027C00029462C48FEF7CEFA70BB2A48FEF7CFF90F
:1027D000C0B200EB400040F6FF71B0FBF1F0C0B2B8
:1027E000FDF752FE9FED241B53EC112BFDF7CFFD9F
:1027F0009FED231B53EC112BFDF7D7FD9FED221B03
:1028000053EC112BFDF722FDFDF74BFEC2B20A205F
:10281000B2FBF0F130318DF80C10B2FBF0F100FB9F
:10282000112030308DF80D00124823460B226946E6
:102830006430FFF7C3FA0F482346022203A964302D
:10284000FFF7BCFA0B482346032204A96430FFF7C4
:10285000B5FA3046FEF77CFBAFE7000000100240FF
:10286000393900004D4553535552452049532000F6
:10287000202020000800002052B81E85EB51E83FC0
:102880007B14AE47E17A643F00000000000039404D
:102890000000000000000000010203040607080910
:1028A000A0860100400D0300801A060000350C00D0
:1028B00040420F0080841E0000093D0000127A0093
:1028C0000024F40000366E010048E801006CDC02D0
:1028D0000000000001020304F828000800000020A6
:1028E000080000004A27000800290008080000200E
:1028F000E00400005A2700080000000000093D0025
:040000050800018965
:00000001FF
