:020000040800F2
:10000000800400209D010008D7120008A7120008F4
:10001000D5120008B1020008911A00080000000083
:10002000000000000000000000000000AD15000806
:10003000B302000800000000F9120008AF15000824
:10004000B7010008B7010008B7010008B7010008B0
:10005000B7010008B7010008B7010008B7010008A0
:10006000B7010008B7010008B7010008B701000890
:10007000B7010008B7010008B7010008B701000880
:10008000B7010008B7010008B7010008B701000870
:10009000B7010008B7010008B7010008B701000860
:1000A000B7010008B7010008B7010008B701000850
:1000B000B7010008B7010008B7010008B701000840
:1000C000B7010008B7010008B7010008B701000830
:1000D000B7010008B7010008B7010008B701000820
:1000E000B7010008B7010008B7010008B701000810
:1000F000B7010008B7010008B7010008B701000800
:10010000B7010008B7010008B7010008B7010008EF
:10011000B7010008B7010008B7010008B7010008DF
:10012000B7010008B7010008B7010008B7010008CF
:10013000B7010008B7010008B7010008B7010008BF
:10014000B7010008B7010008B7010008B7010008AF
:10015000B7010008B7010008B7010008B70100089F
:10016000B7010008B7010008B7010008B70100088F
:10017000B7010008B7010008B7010008000000003F
:10018000B7010008B7010008DFF80CD000F07EF8D6
:1001900000480047B11A0008800400200648804744
:1001A00006480047FEE7FEE7FEE7FEE7FEE7FEE75C
:1001B000FEE7FEE7FEE7FEE72516000889010008D6
:1001C0002DE9F05F0546002092469B46884606468C
:1001D000814640241BE0284641464746224600F01F
:1001E00044F853465A46C01A914110D31146184656
:1001F000224600F02BF82D1A67EB01084F462246E5
:100200000120002100F022F817EB00094E41201ECA
:10021000A4F10104DFDC484631462A46434600F09B
:1002200000B830BCBDE8C09FD2B201E000F8012B9D
:10023000491EFBD270470022F6E710B513460A4666
:1002400004461946FFF7F0FF204610BD202A04DBC4
:10025000203A00FA02F1002070479140C2F12003D9
:1002600020FA03F3194390407047202A04DB203A18
:1002700021FA02F00021704721FA02F3D040C2F1C6
:10028000200291400843194670470000064C074D74
:1002900006E0E06840F0010394E807009847103456
:1002A000AC42F6D3FFF774FF901B0008B01B0008A8
:1002B000FEE770472DE9F84FDFF898B100234FF0C3
:1002C000010C4FF0030A4FF00F090BF1040EB9E0D7
:1002D0000CFA03F4224070D04D68022D01D0122D8B
:1002E0000ED1DD0800EB8508D8F820505E07F70E28
:1002F00009FA07F6B5430E69BE402E43C8F82060E0
:1003000007685E0091F804800AFA06F508F0030811
:10031000AF4308FA06F848EA0708C0F800804F68BB
:10032000012F05D0022F03D0112F01D0122F13D18E
:10033000D0F80880CF6828EA0508B74047EA0807E0
:100340008760D0F804800F7928EA0408C7F3001703
:100350009F4047EA08074760D1F804806FEA080722
:10036000BF0706D1C76AA743C8F3C0049C403C43FB
:10037000C462C468AC438D68B5402543C5604C6811
:10038000E4005ED5344C256E45F001052566246EEB
:1003900023F0030504F001040094304C2E19B468D6
:1003A0009D072F0F09FA07F5AC43B0F1904F05D028
:1003B0002B4DA84204D101251CE042E0002519E0A4
:1003C000284DA84201D1022514E0274DA84201D1B1
:1003D00003250FE0254DA84201D104250AE0244D54
:1003E000A84201D1052505E0224DA84201D10625EC
:1003F00000E00725BD402543B560DBF800405D46C1
:100400004E689443F60300D514432C60DEF8004098
:1004100075464E689443B60300D514432C600D4DC9
:1004200008352C684E689443F60200D514432C60BE
:10043000084D0C352C684E689443B60200D5144321
:100440002C605B1C0A6832FA03F57FF441AF00F0C0
:1004500013B80000000401400010024000000140F9
:100460000004004800080048000C00480010004844
:10047000001400480018004818BCBDE8E08F0AB11D
:1004800081617047816270470148006870470000D1
:100490000000002002480168491C0160704700000C
:1004A0000000002010B50024032000F059F80020BF
:1004B00000F008F808B1012401E000F01BF8204624
:1004C00010BD000070B5054609484FF47A7100244C
:1004D0000068B0FBF1F000F09DFD08B1012404E0DC
:1004E00000222946501E00F01BF8204670BD000077
:1004F00004000020094808B5016E41F001010166C1
:10050000016E01F001010091816D41F08051816522
:10051000806D00F08050009008BD00000010024087
:10052000F0B40E4B1B680C46C3F30223C3F107055E
:10053000042D00D90425191D072901D2002300E04C
:10054000DB1E012606FA05F1491E214099409E4016
:10055000761E16403143F0BC00F0BEBE0CED00E04C
:10056000064900F0070208684FF6FF03184040EA0A
:100570000220034A10430860704700000CED00E0C1
:100580000000FA051649B0F5007F0868C0F3412065
:1005900009D0022805D0086820F4C06040F48060CB
:1005A0000860002070470128FBD0086820F4C06074
:1005B00040F4007008600B483222006850430A4A39
:1005C000B0FBF2F0401C00E0401E4A69520501D524
:1005D0000028F9D148694005E3D5032070470000A1
:1005E000007000400400002040420F0002480068F4
:1005F00000F4C06070470000007000402DE9F84F23
:10060000044600270088E54D3E46010504F1200B15
:100610001DD5606E78B1B0F5800F11D0B0F5000F28
:1006200004D0B0F5400F22D001270FE0E86840F475
:100630008030E8601BE00021201D00F05FFE03E039
:100640000021584600F0F0FE070010D03E462088FA
:10065000C00426D5A06EC0B1B0F1807F1AD0B0F131
:10066000007F0DD0B0F1407F19D0012718E0D5F8F8
:100670008800616E20F440000843C5F88800E6E772
:10068000E86840F48030E86009E00021201D00F0B7
:1006900035FE03E00021584600F0C6FE0746F7B1DC
:1006A0003E46206880033AD5A86D4FF00008C00090
:1006B00009D4A86D40F08050A865A86D4FF00108DE
:1006C00000F080500090DFF8D8A2DAF8001041F472
:1006D0008071CAF80010FFF7D7FE814610E0D5F808
:1006E0008800A16E20F040700843C5F88800D8E764
:1006F000FFF7CAFEA0EB0900022801D9032705E095
:10070000DAF80000C005F3D5002F7CD04FEA0706C9
:10071000B8F1000F03D0A86D20F08050A8652078B4
:10072000C00707D0D5F88800A16B20F0030008436C
:10073000C5F888002078800707D5D5F88800E16BD8
:1007400020F00C000843C5F888002078400707D542
:10075000D5F88800216C20F030000843C5F88800E7
:100760002078000707D5D5F88800616C20F0C0001C
:100770000843C5F888002078C00607D5D5F888005A
:10078000A16C20F440700843C5F8880020788006EA
:1007900007D5D5F88800E16C20F440600843C5F81F
:1007A00088002088800507D5D5F88800E16D20F401
:1007B00040200843C5F888002088400507D5D5F8B3
:1007C0008800216E20F440100843C5F88800207886
:1007D000400607D5D5F88800216D20F44050084325
:1007E000C5F888002078000607D5D5F88800616D27
:1007F00020F440400843C5F888002088C00509D58A
:10080000D5F8880000E01CE0A16D20F440300843DA
:10081000C5F8880020884FF0006780044FF080689A
:100820004FD5D5F88800E16E20F040600843C5F848
:100830008800E06EB8423CD1E86840F48010E8607F
:100840003FE0D5F8900010F4407015D0D4F8841033
:10085000814211D0D5F89000D5F8901020F4407066
:1008600041F48031C5F89010D5F8901021F4803112
:10087000C5F89010C5F89000C00710D0FFF704FE2F
:10088000074641F2883906E0FFF7FEFDC11B4945E6
:1008900001D903263CE7D5F890008007F4D5D5F8B8
:1008A0009000D4F8841020F440700843C5F89000FC
:1008B0002EE7404505D10121201D00F01FFD00B1AC
:1008C00006462068000317D5D5F88800216F20F070
:1008D00040600843C5F88800206FB84204D1E8683A
:1008E00040F48010E86007E0404505D10121201D5B
:1008F00000F004FD00B106462068400317D5D5F886
:100900008800616F20F040600843C5F88800606F80
:10091000B84204D1E86840F48010E86007E0404540
:1009200005D10121201D00F0E9FC00B10646208818
:1009300040041AD5D5F88800A16F20F04050084334
:10094000C5F88800A06FB0F1805F03D0B0F1005F00
:1009500005D00AE00221201D00F0D0FC03E00221B6
:10096000584600F061FD00B106462088000407D516
:10097000D5F88800E16F20F080400843C5F8880072
:100980002068C00307D555F8880FD4F8801020F0F0
:10099000004008432860304600F004B800100240D0
:1009A0000070004018BCBDE8E08F00002DE9F04762
:1009B0000F46050058D03F4E306800F00700B8429F
:1009C00009D2306820F0070038433060306800F00A
:1009D0000700B84248D12878374CC0072CD0686847
:1009E000032811D0022812D0216898B149050029A6
:1009F0003ADAA16821F003010143A160FFF744FD49
:100A0000804641F2883910E021688901EFE72168CA
:100A10008903ECE78907EAE7FFF736FDA0EB080159
:100A2000494502D90320BDE8F087A068696800F055
:100A30000C00B0EB810FEFD12878800705D5A068B6
:100A4000A96820F0F0000843A060306800F00700BB
:100A5000B8420BD9306820F0070038433060306866
:100A600000F00700B84201D00120DCE728784007F9
:100A700005D5A068E96820F4E0600843A060287804
:100A8000000706D5A068296920F4605040EAC1003B
:100A9000A06000F03BF8A168084AC1F30311515C63
:100AA00001F01F01C84006490860BDE8F04700207A
:100AB000FFF708BD0020024000100240481B00085C
:100AC000040000200548064900688968054AC1F30A
:100AD0000221515C01F01F01C84070470400002052
:100AE00000100240881B0008054806490068896814
:100AF000054AC1F3C221515C01F01F01C840704793
:100B00000400002000100240881B000870B5254931
:100B1000002318468A68CC6812F00C0204F0030621
:100B2000214C4FEA640509D00C2A05D0042A26D0AE
:100B3000082A00D1284670BD012E10D10B681B0772
:100B400004D4D1F89430C3F3032302E00B68C3F359
:100B50000313164E56F823307AB10C2AEBD1C8682D
:100B600000F00302C868C0F30210401C022A08D03B
:100B7000032A09D0B3FBF0F008E0184670BD204608
:100B800070BDB4FBF0F001E0B5FBF0F0CA68C968D5
:100B9000C2F306225043C1F34161491C4900B0FB36
:100BA000F1F070BD001002400024F400581B000852
:100BB0002DE9F84305007CD0FD4CA06800F00C0640
:100BC000E06800F003072878C00661D576B10C2EE6
:100BD00001D1012F0AD0A8690028206878D040F000
:100BE00001002060FFF750FC804659E02068800734
:100BF00002D5A8690028DED0286A2168090703D534
:100C0000216801F0F00104E0D4F89410F02202EA27
:100C10001111884215D900F08BFC002849D12068B9
:100C200040F0080020602068296A20F0F0000843A6
:100C300020606068E96920F47F4040EA012060603C
:100C400015E0206840F0080020602068296A20F044
:100C5000F000084320606068E96920F47F4040EAC2
:100C600001206060286A00F063FC0028D6D1FFF7FD
:100C70004DFFA168CF4AC1F30311515C01F01F0180
:100C8000C840CD4908600020FFF71CFC00287DD13A
:100C90002FE000BFFFF7F8FBA0EB0800022876D892
:100CA00020688007F6D5206840F0080020602068A2
:100CB00001E0BBE00CE0296A20F0F000084320606E
:100CC0006068E96920F47F4040EA0120606010E03C
:100CD00020F001002060FFF7D7FB804606E000BF50
:100CE000FFF7D2FBA0EB08000228D8D820688007C5
:100CF000F6D42878C00740D0082E18D00C2E01D189
:100D0000032F14D06868B0F5803F17D0B0F5A02F3E
:100D1000206817D020F480302060206820F48020E4
:100D200020606868E0B1FFF7AFFB804614E0206800
:100D3000800322D56868002878D01EE0206840F43F
:100D40008030EDE740F480202060F7E7FFF79CFB60
:100D5000A0EB08006428A2D820688003F6D50CE038
:100D6000FFF792FB804605E0FFF78EFBA0EB080043
:100D7000642894D820688003F6D4287880073BD56F
:100D8000042E11D00C2E04D1022F01E036E1A1E097
:100D90000AD0E868002820681ED040F480702060E7
:100DA000FFF772FB07460CE0206840050CD5E868A9
:100DB0000028C1D008E000BFFFF766FBC01B022877
:100DC00093D820684005F7D56068297C20F0F8505A
:100DD00040EA016060600FE020F480702060FFF75F
:100DE00053FB074605E000BFFFF74EFBC01B022880
:100DF00070D820684005F7D42878000729D568699D
:100E00000028D4F8940012D040F00100C4F89400F7
:100E1000FFF73AFB074604E0FFF736FBC01B02284A
:100E200058D8D4F894008007F6D512E0EDE020F011
:100E30000100C4F89400FFF727FB074605E000BF58
:100E4000FFF722FBC01B022844D8D4F89400800787
:100E5000F6D42878400768D5A06D0027C00008D4D4
:100E6000A06D40F08050A065A06D012700F080507B
:100E7000009052480168C90512D40168814641F4C6
:100E800080710160FFF700FB804605E0FFF7FCFA88
:100E9000A0EB080002281DD8D9F80000C005F5D540
:100EA000A868012817D00528D4F8900018D020F0A1
:100EB0000100C4F89000D4F8900020F0040000BFB6
:100EC000C4F89000A86841F28839D0B1FFF7DCFA85
:100ED000804611E06BE0D4F8900040F00100EFE7AD
:100EE00040F00400C4F89000F5E700BFFFF7CCFA2B
:100EF000A0EB080149455AD8D4F890008007F5D5F1
:100F00000EE0FFF7C1FA804606E000BFFFF7BCFA2B
:100F1000A0EB0801494570D8D4F890008007F5D4BB
:100F20001FB1A06D20F08050A065A86AF0B30C2E10
:100F30006BD00228206820F08070206004D02068E8
:100F400010F0205F47D04AE0FFF79EFA064604E023
:100F5000FFF79AFA801B02284FD820688001F7D447
:100F6000286BE96A000110380843696BAA6B090213
:100F7000120941EA42410843A98F114A490802EB8C
:100F80004151084395F840104908120102EB4161B4
:100F90000843E060206840F080702060E06840F026
:100FA0008070E060FFF770FA054610E02BE024E067
:100FB00000100240481B00080400002000700040A0
:100FC0000000E0FFFFF760FA401B022815D82068F8
:100FD0008001F7D517E0E06820F00300E060E068EA
:100FE0000B490840E060FFF74FFA054608E000BFF4
:100FF000FFF74AFA401B022802D90320BDE8F88314
:1010000020688001F4D40020F8E70120F6E7000012
:10101000FFFFEEFE10B5401EB0F1807F01D301202E
:1010200010BD4FF0E02460610F21601700F054F90B
:101030000020A06107202061002010BD10B5040031
:1010400003D094F8710010B107E0012010BD00201A
:1010500084F87000204600F027F8242084F87100FE
:101060002068016821F001010160204600F08EFB3C
:101070000128EBD0606A10B1204600F0F5FA206834
:10108000416821F4904141602068816821F02A0183
:1010900081602068016841F0010101602046BDE8DF
:1010A000104000F045BB000010B586B00446142186
:1010B0006846FFF7C0F81349206888421FD11248DC
:1010C000816D41F400318165816D01F4003105913C
:1010D000C16C41F00101C164C06C694600F00100BF
:1010E00005900C2000900220019000200290032027
:1010F0000390072004904FF09040FFF7DBF806B014
:1011000010BD000000440040001002402DE9F84FDF
:10111000044690F872009A4616460D46202865D17E
:10112000EDB1E6B194F8700001285FD0012084F899
:10113000700000276767222084F872005434FFF79C
:10114000A3F9A6808146E68054F84C0C4FF48058F1
:10115000FF21543C404508D1206918B10DE0012021
:1011600000F046B840F2FF100DE07F2218B1B0F158
:10117000805F05D009E0206950B9A4F85C1004E054
:10118000206928B13F20A4F85C00B4F85C601CE042
:10119000A4F85C20F9E74B46002220212046CDF838
:1011A00000A000F043FC08B10320D9E7A068404547
:1011B00001D12069A0B12068808C304005F8010B76
:1011C000B4F85A00401EA4F85A00B4F85A00002897
:1011D000E1D1202084F8720084F870700020BFE70D
:1011E0002068808C304025F8020BE9E70220B7E741
:1011F00018BCBDE8E08F2DE9F843044690F8710073
:101200001F4616460D4620284BD1C5B1BEB194F8F5
:101210007000012845D0012084F870004FF00008CC
:10122000C4F87480212084F87100FFF72DF9A4F828
:1012300050608146A4F852604FF4805615E00120BA
:10124000BDE8F8838021204600F0F0FBD8B9A06803
:10125000B04201D12069C0B115F8010B21680885A1
:10126000B4F85200401EA4F85200B4F852004B46A5
:101270004FF0000200970028E4D14FF040012046D3
:1012800000F0D4FB30B10320DAE735F8020BC0F3ED
:101290000800E3E7202084F8710084F870800020C3
:1012A000CEE70220CCE7FEE70948084901604FF489
:1012B000E1314160002181600C22C160C0E904126B
:1012C0008161C16101624162FFF7B8BE0044004024
:1012D00008000020FEE770470907090E002806DA1B
:1012E00000F00F0000F1E02080F8141D704700F1BD
:1012F000E02080F800147047704700002DE9F041AD
:10130000444C05468846E0680026810728680DD0D1
:10131000E16801F00301814216D1A8B1E068696873
:10132000C0F30210401C88420ED120E0012804D0F6
:10133000022805D0032807D108E02168890701E0C9
:1013400021684905002907DB01265FE02168890340
:1013500002D421684903F5E7E1686A686FF00F037A
:1013600021F0730103EB021211430143E160206895
:1013700020F080602060FFF787F8074605E000BF97
:10138000FFF782F8C01B022837D820680001F7D485
:10139000B8F1000F18D0B8F1010F1ED0287D4FF022
:1013A0007E41400801EB4060A96840EA01202169C4
:1013B000194A114008432061206840F08060206095
:1013C000FFF762F807461AE0A868E9680002090911
:1013D00040EA41402169114AEBE7288A1049400858
:1013E00001EB4050A96840EA012021690D4AE0E77D
:1013F000FFF74AF8C01B022801D9032606E020683F
:101400000001F5D52069A969084320613046BDE88F
:10141000F081000000100240FF80FFF9FF80FDFF17
:101420000000E0FFFF809FFF2DE9F0413D4C0646A4
:101430008846E0680025810730680DD0E16801F03A
:101440000301814216D1A8B1E0687168C0F30210AF
:10145000401C88420ED120E0012804D0022805D08B
:10146000032807D108E02168890701E021684905C0
:10147000002907DB012551E02168890302D4216896
:101480004903F5E7E16872686FF00F0321F073011B
:1014900003EB021211430143E160206820F0805009
:1014A0002060FEF7F1FF074605E000BFFEF7ECFF06
:1014B000C01B022829D820688000F7D4B8F1000F9B
:1014C00015D0307C4FF07E41400801EB4060B168A0
:1014D00040EA01206169144A1140084360612068B4
:1014E00040F080502060FEF7CFFF07460FE0B06865
:1014F000F1680002090940EA414061690B4AEBE7E3
:10150000FEF7C2FFC01B022801D9032506E02068B0
:101510008000F5D560697169084360612846BDE8BF
:10152000F081000000100240FF80FFF9FF80FDFF06
:10153000F8B51C4D06460024A86DC00002D5FFF783
:1015400055F80DE0A86D40F08050A865A86D00F03A
:1015500080500090FFF74AF8A96D21F08051A965ED
:10156000B0F5007F04D0802E07D94FF003040AE0C5
:10157000802E08D9A02E01D804E001D1022402E077
:10158000702E00D101240848016821F00701214391
:101590000160006800F00700A04201D00120F8BD02
:1015A0000020F8BD00100240002002407047FEF706
:1015B00071BF30B5B9B0442122A8FEF73CFE14211A
:1015C00033A8FEF738FE88216846FEF734FE102067
:1015D000229001200024CDE928040225CDE92C50D9
:1015E00060212E902A9128202F900720CDE93005E8
:1015F00022A83295FFF7DCFA0F2033900320CDE9C3
:1016000034043694042133A83794FFF7CFF90095BA
:1016100068460F94FEF7F2FF2802FEF7B3FF39B0D9
:1016200030BD00000D48016841F4700101600C48B4
:10163000016841F001010160002181600268094BED
:101640001A4002608214C260026822F480220260A2
:1016500081610249C00380390860704788ED00E06D
:1016600000100240FFFFF6EA90F82410C90706D0E8
:1016700001684A68836A22F400321A434A6090F88B
:101680002410890706D501684A68C36A22F48032AB
:101690001A434A6090F82410490706D501684A6841
:1016A000036B22F480221A434A6090F82410090741
:1016B00006D501684A68436B22F400421A434A6027
:1016C00090F82410C90606D501688A68836B22F455
:1016D00080521A438A6090F82410890606D5016862
:1016E0008A68C36B22F400521A438A6090F824106F
:1016F000490611D501684A68036C22F480121A4326
:101700004A60016CB1F5801F06D101684A68436CDC
:1017100022F4C0021A434A6090F82410090606D544
:1017200001684A68806C22F4002202434A607047D4
:10173000F8B5002604464667FEF7A6FE0546206873
:1017400000686FF07E47000708D52B4600224FF453
:1017500000112046009700F069F960B92068006820
:1017600040070AD52B4600224FF4800120460097FF
:1017700000F05CF908B10320F8BD202084F8710066
:1017800084F8720084F870600020F8BD2DE9F04103
:101790000446016880682369E66918436369102577
:1017A000002733431843954A0B68954E3340034353
:1017B0000B6020684168E36821F44051194341609F
:1017C0002168A069914201D0236A18438B6823F4F1
:1017D000306303438B608B4B21688B4899420DD15A
:1017E000D0F8880010F0030006D001285AD0022853
:1017F00056D0032859D157E0012556E0834B994232
:101800000BD1D0F8880010F00C0047D0042849D044
:10181000082845D00C2848D146E07D4B99420BD191
:10182000D0F8880010F0300038D010283AD02028A6
:1018300036D0302839D137E0764B99420BD1D0F8E9
:10184000880010F0C00029D040282BD0802827D055
:10185000C0282AD128E0704B99420ED1D0F88800D8
:1018600010F440701AD0B0F5807F1BD0B0F5007F27
:1018700016D0B0F5407F18D116E0914215D1D0F8BE
:10188000880010F4406009D0B0F5806F0AD0B0F540
:10189000006F05D0B0F5406F07D105E0002504E0EA
:1018A000022502E0042500E008255C4B00264FF4E9
:1018B000004091423DD135B1022D07D0042D07D013
:1018C000082D10D107E0FFF7FDF803E0184602E00D
:1018D000FFF71CF9A8B3626802EB4201814202D80B
:1018E000B0EB023F01D9012775E0DFF834815DB12B
:1018F000022D0CD0042D13D0082DF4D15008290549
:10190000401846F1000105E0FFF7DCF80AE0500856
:101910004449F5E70023FEF753FCA0F5407156E07B
:10192000FFF7F4F86268010E0302500818187141BD
:10193000F0E7E1694FF6EF7881422FD1092DD2D23D
:1019400000E048E0DFE805F006092005230505056D
:101950002600C8E7FFF7B6F801E0FFF7C5F8410039
:10196000D4F8040001EB5001B1FBF0F080B2A0F11B
:1019700010014145B7D84FF6F0710140C0F3420065
:1019800001432068C16026E027496068EAE7FFF765
:10199000BDF8E4E74FF480316068E3E7092DA2D297
:1019A000DFE805F006091E052205050525009AE772
:1019B000FFF788F801E0FFF797F80146606801EB50
:1019C000500100BFB1FBF0F080B2A0F11001414521
:1019D00089D82168C860266638466666BDE8F08109
:1019E000606803EB5001EDE7FFF790F8E5E7616809
:1019F00000EB5100B0FBF1F0E6E700000080004092
:101A0000F369FFEF0038014000100240004400403D
:101A100000480040004C0040005000400024F4000A
:101A2000FFFC0F00000024F40048E8012DE9F0411C
:101A3000984617460E460446069D1DE0681C1BD0BE
:101A40002DB1FEF721FDA0EB0800A84214D92068B3
:101A5000016821F4D07101602068816821F00101E2
:101A60008160202084F8710084F87200002084F8DE
:101A700070000320BDE8F0812068C06936EA0000EC
:101A800004D00020B842D9D00020F3E70120F9E7C4
:101A9000FEE702E008C8121F08C1002AFAD1704709
:101AA0007047002001E001C1121F002AFBD17047DE
:101AB00088B0FEF7F7FCFFF77CFD14216846FEF7BF
:101AC000BAFB1D48C16C41F08001C164C16C01F0DA
:101AD00080010791C16C41F00101C164C06C4FF0FD
:101AE000904400F001000790002220212046FEF7DC
:101AF000C6FC2020009001200021CDE901010391C6
:101B000069462046FEF7D6FBFFF7CEFB0BA041F25D
:101B10008834D0E90010CDE905104FF47A752346DA
:101B2000052205A90748FFF7F1FA2B46052205A96A
:101B30000448FFF760FBF2E70010024048454C4CB8
:101B40004F0000000800002000000000000000001E
:101B50000102030406070809A0860100400D0300E6
:101B6000801A060000350C0040420F0080841E00E1
:101B700000093D0000127A000024F40000366E01D6
:101B80000048E801006CDC020000000001020304D0
:101B9000B01B00080000002008000000921A000896
:101BA000B81B00080800002078040000A21A0008F2
:081BB0000000000000093D00E7
:040000050800018965
:00000001FF
